{
  "contractName": "CXN",
  "abi": [
    {
      "inputs": [],
      "payable": false,
      "stateMutability": "nonpayable",
      "type": "constructor"
    },
    {
      "anonymous": false,
      "inputs": [
        {
          "indexed": true,
          "internalType": "address",
          "name": "owner",
          "type": "address"
        },
        {
          "indexed": true,
          "internalType": "address",
          "name": "spender",
          "type": "address"
        },
        {
          "indexed": false,
          "internalType": "uint256",
          "name": "tokens",
          "type": "uint256"
        }
      ],
      "name": "Approval",
      "type": "event"
    },
    {
      "anonymous": false,
      "inputs": [
        {
          "indexed": false,
          "internalType": "uint256",
          "name": "tokens",
          "type": "uint256"
        }
      ],
      "name": "Burn",
      "type": "event"
    },
    {
      "anonymous": false,
      "inputs": [
        {
          "indexed": true,
          "internalType": "address",
          "name": "Party",
          "type": "address"
        },
        {
          "indexed": false,
          "internalType": "bool",
          "name": "status",
          "type": "bool"
        }
      ],
      "name": "Eliters",
      "type": "event"
    },
    {
      "anonymous": false,
      "inputs": [
        {
          "indexed": true,
          "internalType": "address",
          "name": "owner",
          "type": "address"
        },
        {
          "indexed": false,
          "internalType": "uint256",
          "name": "tokens",
          "type": "uint256"
        }
      ],
      "name": "Stake",
      "type": "event"
    },
    {
      "anonymous": false,
      "inputs": [
        {
          "indexed": true,
          "internalType": "address",
          "name": "owner",
          "type": "address"
        },
        {
          "indexed": false,
          "internalType": "uint256",
          "name": "tokens",
          "type": "uint256"
        }
      ],
      "name": "StakeGain",
      "type": "event"
    },
    {
      "anonymous": false,
      "inputs": [
        {
          "indexed": true,
          "internalType": "address",
          "name": "from",
          "type": "address"
        },
        {
          "indexed": true,
          "internalType": "address",
          "name": "to",
          "type": "address"
        },
        {
          "indexed": false,
          "internalType": "uint256",
          "name": "tokens",
          "type": "uint256"
        }
      ],
      "name": "Transfer",
      "type": "event"
    },
    {
      "anonymous": false,
      "inputs": [
        {
          "indexed": true,
          "internalType": "address",
          "name": "owner",
          "type": "address"
        },
        {
          "indexed": false,
          "internalType": "uint256",
          "name": "tokens",
          "type": "uint256"
        }
      ],
      "name": "UnStake",
      "type": "event"
    },
    {
      "constant": true,
      "inputs": [],
      "name": "name",
      "outputs": [
        {
          "internalType": "string",
          "name": "",
          "type": "string"
        }
      ],
      "payable": false,
      "stateMutability": "view",
      "type": "function"
    },
    {
      "constant": true,
      "inputs": [],
      "name": "symbol",
      "outputs": [
        {
          "internalType": "string",
          "name": "",
          "type": "string"
        }
      ],
      "payable": false,
      "stateMutability": "view",
      "type": "function"
    },
    {
      "constant": true,
      "inputs": [],
      "name": "decimals",
      "outputs": [
        {
          "internalType": "uint8",
          "name": "",
          "type": "uint8"
        }
      ],
      "payable": false,
      "stateMutability": "view",
      "type": "function"
    },
    {
      "constant": true,
      "inputs": [],
      "name": "totalSupply",
      "outputs": [
        {
          "internalType": "uint256",
          "name": "",
          "type": "uint256"
        }
      ],
      "payable": false,
      "stateMutability": "view",
      "type": "function"
    },
    {
      "constant": true,
      "inputs": [
        {
          "internalType": "address",
          "name": "account",
          "type": "address"
        }
      ],
      "name": "balanceOf",
      "outputs": [
        {
          "internalType": "uint256",
          "name": "",
          "type": "uint256"
        }
      ],
      "payable": false,
      "stateMutability": "view",
      "type": "function"
    },
    {
      "constant": true,
      "inputs": [
        {
          "internalType": "address",
          "name": "account",
          "type": "address"
        }
      ],
      "name": "stakeOf",
      "outputs": [
        {
          "internalType": "uint256",
          "name": "",
          "type": "uint256"
        }
      ],
      "payable": false,
      "stateMutability": "view",
      "type": "function"
    },
    {
      "constant": true,
      "inputs": [],
      "name": "totalStake",
      "outputs": [
        {
          "internalType": "uint256",
          "name": "",
          "type": "uint256"
        }
      ],
      "payable": false,
      "stateMutability": "view",
      "type": "function"
    },
    {
      "constant": false,
      "inputs": [
        {
          "internalType": "address",
          "name": "_to",
          "type": "address"
        }
      ],
      "name": "changeAdmin",
      "outputs": [],
      "payable": false,
      "stateMutability": "nonpayable",
      "type": "function"
    },
    {
      "constant": false,
      "inputs": [
        {
          "internalType": "address",
          "name": "recipient",
          "type": "address"
        },
        {
          "internalType": "uint256",
          "name": "amount",
          "type": "uint256"
        }
      ],
      "name": "transfer",
      "outputs": [
        {
          "internalType": "bool",
          "name": "",
          "type": "bool"
        }
      ],
      "payable": false,
      "stateMutability": "nonpayable",
      "type": "function"
    },
    {
      "constant": true,
      "inputs": [
        {
          "internalType": "address",
          "name": "owner",
          "type": "address"
        },
        {
          "internalType": "address",
          "name": "spender",
          "type": "address"
        }
      ],
      "name": "allowance",
      "outputs": [
        {
          "internalType": "uint256",
          "name": "",
          "type": "uint256"
        }
      ],
      "payable": false,
      "stateMutability": "view",
      "type": "function"
    },
    {
      "constant": false,
      "inputs": [
        {
          "internalType": "address",
          "name": "spender",
          "type": "address"
        },
        {
          "internalType": "uint256",
          "name": "amount",
          "type": "uint256"
        }
      ],
      "name": "approve",
      "outputs": [
        {
          "internalType": "bool",
          "name": "",
          "type": "bool"
        }
      ],
      "payable": false,
      "stateMutability": "nonpayable",
      "type": "function"
    },
    {
      "constant": false,
      "inputs": [
        {
          "internalType": "address",
          "name": "sender",
          "type": "address"
        },
        {
          "internalType": "address",
          "name": "recipient",
          "type": "address"
        },
        {
          "internalType": "uint256",
          "name": "amount",
          "type": "uint256"
        }
      ],
      "name": "transferFrom",
      "outputs": [
        {
          "internalType": "bool",
          "name": "",
          "type": "bool"
        }
      ],
      "payable": false,
      "stateMutability": "nonpayable",
      "type": "function"
    },
    {
      "constant": false,
      "inputs": [
        {
          "internalType": "address",
          "name": "spender",
          "type": "address"
        },
        {
          "internalType": "uint256",
          "name": "addedValue",
          "type": "uint256"
        }
      ],
      "name": "increaseAllowance",
      "outputs": [
        {
          "internalType": "bool",
          "name": "",
          "type": "bool"
        }
      ],
      "payable": false,
      "stateMutability": "nonpayable",
      "type": "function"
    },
    {
      "constant": false,
      "inputs": [
        {
          "internalType": "address",
          "name": "spender",
          "type": "address"
        },
        {
          "internalType": "uint256",
          "name": "subtractedValue",
          "type": "uint256"
        }
      ],
      "name": "decreaseAllowance",
      "outputs": [
        {
          "internalType": "bool",
          "name": "",
          "type": "bool"
        }
      ],
      "payable": false,
      "stateMutability": "nonpayable",
      "type": "function"
    },
    {
      "constant": false,
      "inputs": [
        {
          "internalType": "address",
          "name": "party",
          "type": "address"
        },
        {
          "internalType": "bool",
          "name": "_status",
          "type": "bool"
        }
      ],
      "name": "eliters",
      "outputs": [],
      "payable": false,
      "stateMutability": "nonpayable",
      "type": "function"
    },
    {
      "constant": false,
      "inputs": [
        {
          "internalType": "uint256",
          "name": "amount",
          "type": "uint256"
        }
      ],
      "name": "stake",
      "outputs": [],
      "payable": false,
      "stateMutability": "nonpayable",
      "type": "function"
    },
    {
      "constant": false,
      "inputs": [
        {
          "internalType": "uint256",
          "name": "amount",
          "type": "uint256"
        }
      ],
      "name": "unStake",
      "outputs": [],
      "payable": false,
      "stateMutability": "nonpayable",
      "type": "function"
    },
    {
      "constant": false,
      "inputs": [],
      "name": "redeemGain",
      "outputs": [
        {
          "internalType": "uint256",
          "name": "",
          "type": "uint256"
        }
      ],
      "payable": false,
      "stateMutability": "nonpayable",
      "type": "function"
    },
    {
      "constant": true,
      "inputs": [
        {
          "internalType": "address",
          "name": "sender",
          "type": "address"
        }
      ],
      "name": "stakeReturnOf",
      "outputs": [
        {
          "internalType": "uint256",
          "name": "",
          "type": "uint256"
        }
      ],
      "payable": false,
      "stateMutability": "view",
      "type": "function"
    },
    {
      "constant": true,
      "inputs": [
        {
          "internalType": "address",
          "name": "sender",
          "type": "address"
        }
      ],
      "name": "partyDetails",
      "outputs": [
        {
          "internalType": "uint256",
          "name": "totalTokenSupply",
          "type": "uint256"
        },
        {
          "internalType": "uint256",
          "name": "totalStakes",
          "type": "uint256"
        },
        {
          "internalType": "uint256",
          "name": "balance",
          "type": "uint256"
        },
        {
          "internalType": "uint256",
          "name": "staked",
          "type": "uint256"
        },
        {
          "internalType": "uint256",
          "name": "stakeReturns",
          "type": "uint256"
        }
      ],
      "payable": false,
      "stateMutability": "view",
      "type": "function"
    },
    {
      "constant": false,
      "inputs": [
        {
          "internalType": "uint256",
          "name": "amount",
          "type": "uint256"
        }
      ],
      "name": "setMinStake",
      "outputs": [
        {
          "internalType": "uint256",
          "name": "",
          "type": "uint256"
        }
      ],
      "payable": false,
      "stateMutability": "nonpayable",
      "type": "function"
    },
    {
      "constant": true,
      "inputs": [],
      "name": "minStake",
      "outputs": [
        {
          "internalType": "uint256",
          "name": "",
          "type": "uint256"
        }
      ],
      "payable": false,
      "stateMutability": "view",
      "type": "function"
    }
  ],
  "bytecode": "0x60806040523480156200001157600080fd5b50600354610100900460ff16156200002857600080fd5b6af8277896582678ac00000060005560408051808201909152600b8082526a43584e204e6574776f726b60a81b60209092019182526200006b91600191620001e3565b506040805180820190915260038082526221ac2760e91b60209092019182526200009891600291620001e3565b506003805460ff19166012178155600760048181556005908155600655556a52b7d2dcc80cd2e400000060085568010000000000000000600a556103e8600955601080546001600160a01b0319163390811790915560008054600b819055828252600f60209081526040808420600101839055600e8490558051928352517fddf252ad1be2c89b69c2b068fc378daa952ba7f163c4a11628f55a4df523b3ef9281900390910190a3620001563360016001600160e01b036200016b16565b6003805461ff00191661010017905562000288565b6010546001600160a01b031633146200018357600080fd5b6001600160a01b0382166000818152600f6020908152604091829020805460ff1916851515908117909155825190815291517f4de1c8714e233d8c8a18a3b9ef875414d119ff7ed50d0dddd686ab7278b2fb6c9281900390910190a25050565b828054600181600116156101000203166002900490600052602060002090601f016020900481019282601f106200022657805160ff191683800117855562000256565b8280016001018555821562000256579182015b828111156200025657825182559160200191906001019062000239565b506200026492915062000268565b5090565b6200028591905b808211156200026457600081556001016200026f565b90565b61141380620002986000396000f3fe608060405234801561001057600080fd5b50600436106101425760003560e01c806377a930c2116100b857806395d89b411161007c57806395d89b41146103b8578063a457c2d7146103c0578063a694fc3a146103ec578063a9059cbb14610409578063dd62ed3e14610435578063f5b81d711461046357610142565b806377a930c21461033f5780638569e8e2146103655780638b0e9f3f1461036d5780638c80fd90146103755780638f2839701461039257610142565b8063313ce5671161010a578063313ce56714610284578063375b3c0a146102a257806339509351146102aa57806342623360146102d65780635d3eea91146102fc57806370a082311461031957610142565b806306fdde0314610147578063095ea7b3146101c457806318160ddd146102045780631afb38201461021e57806323b872dd1461024e575b600080fd5b61014f6104b4565b6040805160208082528351818301528351919283929083019185019080838360005b83811015610189578181015183820152602001610171565b50505050905090810190601f1680156101b65780820380516001836020036101000a031916815260200191505b509250505060405180910390f35b6101f0600480360360408110156101da57600080fd5b506001600160a01b03813516906020013561054a565b604080519115158252519081900360200190f35b61020c610561565b60408051918252519081900360200190f35b61024c6004803603604081101561023457600080fd5b506001600160a01b0381351690602001351515610567565b005b6101f06004803603606081101561026457600080fd5b506001600160a01b038135811691602081013590911690604001356105de565b61028c610650565b6040805160ff9092168252519081900360200190f35b61020c610659565b6101f0600480360360408110156102c057600080fd5b506001600160a01b03813516906020013561065f565b61020c600480360360208110156102ec57600080fd5b50356001600160a01b031661069e565b61024c6004803603602081101561031257600080fd5b50356106bc565b61020c6004803603602081101561032f57600080fd5b50356001600160a01b0316610864565b61020c6004803603602081101561035557600080fd5b50356001600160a01b0316610882565b61020c6108f1565b61020c6109c6565b61020c6004803603602081101561038b57600080fd5b50356109cc565b61024c600480360360208110156103a857600080fd5b50356001600160a01b03166109fc565b61014f610a52565b6101f0600480360360408110156103d657600080fd5b506001600160a01b038135169060200135610ab0565b61024c6004803603602081101561040257600080fd5b5035610b08565b6101f06004803603604081101561041f57600080fd5b506001600160a01b038135169060200135610bf5565b61020c6004803603604081101561044b57600080fd5b506001600160a01b0381358116916020013516610c02565b6104896004803603602081101561047957600080fd5b50356001600160a01b0316610c31565b6040805195865260208601949094528484019290925260608401526080830152519081900360a00190f35b60018054604080516020601f6002600019610100878916150201909516949094049384018190048102820181019092528281526060939092909183018282801561053f5780601f106105145761010080835404028352916020019161053f565b820191906000526020600020905b81548152906001019060200180831161052257829003601f168201915b505050505090505b90565b6000610557338484610c76565b5060015b92915050565b600b5490565b6010546001600160a01b0316331461057e57600080fd5b6001600160a01b0382166000818152600f6020908152604091829020805460ff1916851515908117909155825190815291517f4de1c8714e233d8c8a18a3b9ef875414d119ff7ed50d0dddd686ab7278b2fb6c9281900390910190a25050565b60006105eb848484610d7c565b610646843361064185604051806060016040528060268152602001611395602691396001600160a01b038a166000908152600f60209081526040808320338452600401909152902054919063ffffffff61106416565b610c76565b5060019392505050565b60035460ff1690565b60095490565b336000818152600f602090815260408083206001600160a01b03871684526004019091528120549091610557918590610641908663ffffffff6110fb16565b6001600160a01b03166000908152600f602052604090206002015490565b336000908152600f60205260409020600201548111156106db57600080fd5b600061070360646106f76006548561115590919063ffffffff16565b9063ffffffff6111ae16565b9050600061072160646106f76007548661115590919063ffffffff16565b9050600061072f33856111f0565b336000908152600f6020526040902060010154909150610755908263ffffffff6110fb16565b336000908152600f6020526040902060010155600c5461077b908563ffffffff61124316565b600c819055600a546107ab9161079c916106f790869063ffffffff61115516565b600e549063ffffffff6110fb16565b600e5560006107c0858563ffffffff61124316565b336000908152600f60205260409020600101549091506107e6908263ffffffff6110fb16565b336000908152600f60205260409020600181019190915560020154610811908663ffffffff61124316565b336000818152600f6020908152604091829020600201939093558051888152905191927fb24546d975e2628748efc9aced80665e0fad66272033e5c0ea25fd3afac9979592918290030190a25050505050565b6001600160a01b03166000908152600f602052604090206001015490565b6001600160a01b0381166000908152600f6020526040812060030154600e5482916108b3919063ffffffff61124316565b600a546001600160a01b0385166000908152600f60205260409020600201549192506108ea916106f790849063ffffffff61115516565b9392505050565b6000806108fd33610882565b90508061090e576000915050610547565b600e54336000908152600f6020526040902060038101919091556001015461093c908263ffffffff6110fb16565b336000818152600f60209081526040918290206001019390935580518481529051919230927fddf252ad1be2c89b69c2b068fc378daa952ba7f163c4a11628f55a4df523b3ef9281900390910190a360408051828152905133917f1c82532ab965ecfb565b9b4850bfe668c138f126f491e3b46199b3d5cb95d811919081900360200190a2905090565b600c5490565b6010546000906001600160a01b031633146109e657600080fd5b600082116109f357600080fd5b50600981905590565b6010546001600160a01b03163314610a1357600080fd5b336000908152600f6020526040902060010154610a31908290610bf5565b50610a3d816001610567565b50601080546001600160a01b03191633179055565b60028054604080516020601f600019610100600187161502019094168590049384018190048102820181019092528281526060939092909183018282801561053f5780601f106105145761010080835404028352916020019161053f565b60006105573384610641856040518060600160405280602381526020016112eb60239139336000908152600f602090815260408083206001600160a01b038d168452600401909152902054919063ffffffff61106416565b80610b1233610864565b1015610b1d57600080fd5b600954811015610b2c57600080fd5b610b346108f1565b50600c54610b48908263ffffffff6110fb16565b600c55336000908152600f6020526040902060010154610b6e908263ffffffff61124316565b336000908152600f60205260409020600181019190915560020154610b99908263ffffffff6110fb16565b336000818152600f60209081526040918290206002810194909455600e546003909401939093558051848152905191927febedb8b3c678666e7f36970bc8f57abf6d8fa2e828c0da91ea5b75bf68ed101a92918290030190a250565b6000610557338484610d7c565b6001600160a01b039182166000908152600f602090815260408083209390941682526004909201909152205490565b6000806000806000610c41610561565b610c496109c6565b610c5288610864565b610c5b8961069e565b610c648a610882565b939a9299509097509550909350915050565b6001600160a01b038316610cbb5760405162461bcd60e51b815260040180806020018281038252602281526020018061130e6022913960400191505060405180910390fd5b6001600160a01b038216610d16576040805162461bcd60e51b815260206004820181905260248201527f43584e3a20617070726f766520746f20746865207a65726f2061646472657373604482015290519081900360640190fd5b6001600160a01b038381166000818152600f602090815260408083209487168084526004909501825291829020859055815185815291517f8c5be1e5ebec7d5bd14f71427d1e84f3dd0314c0f7b2291e5b200ac8c7c3b9259281900390910190a3505050565b6001600160a01b038316610dc15760405162461bcd60e51b81526004018080602001828103825260238152602001806113516023913960400191505060405180910390fd5b6001600160a01b038216610e065760405162461bcd60e51b81526004018080602001828103825260218152602001806113746021913960400191505060405180910390fd5b80610e1084610864565b1015610e1b57600080fd5b610e61816040518060600160405280602481526020016113bb602491396001600160a01b0386166000908152600f6020526040902060010154919063ffffffff61106416565b6001600160a01b0384166000908152600f6020526040812060010191909155600454610e9b906064906106f790859063ffffffff61115516565b9050600854600b600001541080610eca57506001600160a01b0384166000908152600f602052604090205460ff165b15610ed3575060005b6000610ee5838363ffffffff61124316565b6001600160a01b0385166000908152600f6020526040902060010154909150610f14908263ffffffff6110fb16565b6001600160a01b038086166000818152600f602090815260409182902060010194909455805185815290519193928916927fddf252ad1be2c89b69c2b068fc378daa952ba7f163c4a11628f55a4df523b3ef92918290030190a3811561105d57600c5415610fd2576000610f9860646106f76005548761115590919063ffffffff16565b9050610fbb61079c600b600101546106f7600a548561115590919063ffffffff16565b600e55610fce838263ffffffff61124316565b9250505b600b54610fe5908363ffffffff61124316565b600b556040805183815290516000916001600160a01b038816917fddf252ad1be2c89b69c2b068fc378daa952ba7f163c4a11628f55a4df523b3ef9181900360200190a36040805183815290517fb90306ad06b2a6ff86ddc9327db583062895ef6540e62dc50add009db5b356eb9181900360200190a15b5050505050565b600081848411156110f35760405162461bcd60e51b81526004018080602001828103825283818151815260200191508051906020019080838360005b838110156110b85781810151838201526020016110a0565b50505050905090810190601f1680156110e55780820380516001836020036101000a031916815260200191505b509250505060405180910390fd5b505050900390565b6000828201838110156108ea576040805162461bcd60e51b815260206004820152601b60248201527f536166654d6174683a206164646974696f6e206f766572666c6f770000000000604482015290519081900360640190fd5b6000826111645750600061055b565b8282028284828161117157fe5b04146108ea5760405162461bcd60e51b81526004018080602001828103825260218152602001806113306021913960400191505060405180910390fd5b60006108ea83836040518060400160405280601a81526020017f536166654d6174683a206469766973696f6e206279207a65726f000000000000815250611285565b6001600160a01b0382166000908152600f6020526040812060030154600e548291611221919063ffffffff61124316565b600a5490915061123b906106f7838663ffffffff61115516565b949350505050565b60006108ea83836040518060400160405280601e81526020017f536166654d6174683a207375627472616374696f6e206f766572666c6f770000815250611064565b600081836112d45760405162461bcd60e51b81526020600482018181528351602484015283519092839260449091019190850190808383600083156110b85781810151838201526020016110a0565b5060008385816112e057fe5b049594505050505056fe43584e3a2064656372656173656420616c6c6f77616e63652062656c6f77207a65726f43584e3a20617070726f76652066726f6d20746865207a65726f2061646472657373536166654d6174683a206d756c7469706c69636174696f6e206f766572666c6f7743584e3a207472616e736665722066726f6d20746865207a65726f206164647265737343584e3a207472616e7366657220746f20746865207a65726f206164647265737343584e3a207472616e7366657220616d6f756e74206578636565647320616c6c6f77616e636543584e3a207472616e7366657220616d6f756e7420657863656564732062616c616e6365a265627a7a72315820d155820330b2851f7c6f17206e7b736832c149092e00042e4bcb49338c12d5f964736f6c63430005100032",
  "source": "// SPDX-License-Identifier: MIT\n\npragma solidity 0.5.16;\n\n\nlibrary SafeMath {\n    /**\n     * @dev Returns the addition of two unsigned integers, reverting on\n     * overflow.\n     *\n     * Counterpart to Solidity's `+` operator.\n     *\n     * Requirements:\n     *\n     * - Addition cannot overflow.\n     */\n    function add(uint256 a, uint256 b) internal pure returns (uint256) {\n        uint256 c = a + b;\n        require(c >= a, \"SafeMath: addition overflow\");\n\n        return c;\n    }\n\n    /**\n     * @dev Returns the subtraction of two unsigned integers, reverting on\n     * overflow (when the result is negative).\n     *\n     * Counterpart to Solidity's `-` operator.\n     *\n     * Requirements:\n     *\n     * - Subtraction cannot overflow.\n     */\n    function sub(uint256 a, uint256 b) internal pure returns (uint256) {\n        return sub(a, b, \"SafeMath: subtraction overflow\");\n    }\n\n    /**\n     * @dev Returns the subtraction of two unsigned integers, reverting with custom message on\n     * overflow (when the result is negative).\n     *\n     * Counterpart to Solidity's `-` operator.\n     *\n     * Requirements:\n     *\n     * - Subtraction cannot overflow.\n     */\n    function sub(uint256 a, uint256 b, string memory errorMessage) internal pure returns (uint256) {\n        require(b <= a, errorMessage);\n        uint256 c = a - b;\n\n        return c;\n    }\n\n    /**\n     * @dev Returns the multiplication of two unsigned integers, reverting on\n     * overflow.\n     *\n     * Counterpart to Solidity's `*` operator.\n     *\n     * Requirements:\n     *\n     * - Multiplication cannot overflow.\n     */\n    function mul(uint256 a, uint256 b) internal pure returns (uint256) {\n        // Gas optimization: this is cheaper than requiring 'a' not being zero, but the\n        // benefit is lost if 'b' is also tested.\n        // See: https://github.com/OpenZeppelin/openzeppelin-contracts/pull/522\n        if (a == 0) {\n            return 0;\n        }\n\n        uint256 c = a * b;\n        require(c / a == b, \"SafeMath: multiplication overflow\");\n\n        return c;\n    }\n\n    /**\n     * @dev Returns the integer division of two unsigned integers. Reverts on\n     * division by zero. The result is rounded towards zero.\n     *\n     * Counterpart to Solidity's `/` operator. Note: this function uses a\n     * `revert` opcode (which leaves remaining gas untouched) while Solidity\n     * uses an invalid opcode to revert (consuming all remaining gas).\n     *\n     * Requirements:\n     *\n     * - The divisor cannot be zero.\n     */\n    function div(uint256 a, uint256 b) internal pure returns (uint256) {\n        return div(a, b, \"SafeMath: division by zero\");\n    }\n\n    /**\n     * @dev Returns the integer division of two unsigned integers. Reverts with custom message on\n     * division by zero. The result is rounded towards zero.\n     *\n     * Counterpart to Solidity's `/` operator. Note: this function uses a\n     * `revert` opcode (which leaves remaining gas untouched) while Solidity\n     * uses an invalid opcode to revert (consuming all remaining gas).\n     *\n     * Requirements:\n     *\n     * - The divisor cannot be zero.\n     */\n    function div(uint256 a, uint256 b, string memory errorMessage) internal pure returns (uint256) {\n        require(b > 0, errorMessage);\n        uint256 c = a / b;\n        // assert(a == b * c + a % b); // There is no case in which this doesn't hold\n\n        return c;\n    }\n\n}\n\n\n/**\n * SPDX-License-Identifier: <SPDX-License>\n * @dev Implementation of the {ICXN} interface.\n *\n * This implementation is agnostic to the way tokens are created. This means\n * that a supply mechanism has to be added in a derived contract using {_mint}.\n * For a generic mechanism see {CXNPresetMinterPauser}.\n *\n * TIP: For a detailed writeup see our guide\n * https://forum.zeppelin.solutions/t/how-to-implement-CXN-supply-mechanisms/226[How\n * to implement supply mechanisms].\n *\n * We have followed general OpenZeppelin guidelines: functions revert instead\n * of returning `false` on failure. This behavior is nonetheless conventional\n * and does not conflict with the expectations of CXN applications.\n *\n * Additionally, an {Approval} event is emitted on calls to {transferFrom}.\n * This allows applications to reconstruct the allowance for all accounts just\n * by listening to said events. Other implementations of the EIP may not emit\n * these events, as it isn't required by the specification.\n *\n * Finally, the non-standard {decreaseAllowance} and {increaseAllowance}\n * functions have been added to mitigate the well-known issues around setting\n * allowances. See {ICXN-approve}.\n */\n\n\ncontract CXN {\n    \n    using SafeMath for uint256;\n\n    uint256 private _totalSupply;\n\n    string private _name;\n    string private _symbol;\n    uint8 private _decimals;\n    bool private _initialized;\n\n    uint256 private _burnRate; // 7%\n    uint256 private _forStakers; // 4%\n\n    uint256 private _burnRateStaker;\n    uint256 private _unstakeForStaker;\n\n    uint256 private _Burnt_Limit;\n    uint256 private _Min_Stake;\n\n    uint256 private _Scale;\n    \n\n    struct Party {\n\t\tbool elite;\n\t\tuint256 balance;\n\t\tuint256 staked;\n        uint256 payoutstake;\n\t\tmapping(address => uint256) allowance;\n\t}\n\n\tstruct Board {\n\t\tuint256 totalSupply;\n\t\tuint256 totalStaked;\n        uint256 totalBurnt;\n        uint256 retPerToken;\n\t\tmapping(address => Party) parties;\n\t\taddress owner;\n\t}\n\n    Board private _board;\n\n\n    event Transfer(address indexed from, address indexed to, uint256 tokens);\n\tevent Approval(address indexed owner, address indexed spender, uint256 tokens);\n\tevent Eliters(address indexed Party, bool status);\n\tevent Stake(address indexed owner, uint256 tokens);\n\tevent UnStake(address indexed owner, uint256 tokens);\n    event StakeGain(address indexed owner, uint256 tokens);\n\tevent Burn(uint256 tokens);\n\n\n    /**\n     * @dev Sets the values for {name} and {symbol}, initializes {decimals} with\n     * a default value of 18.\n     *\n     * To select a different value for {decimals}, use {_setupDecimals}.\n     *\n     * All three of these values are immutable: they can only be set once during\n     * construction.\n     */\n    constructor () public {\n        \n        require(!_initialized);\n\n       _totalSupply = 3e26;\n       _name = \"CXN Network\";\n       _symbol = \"CXN\";\n       _decimals = 18;\n       _burnRate = 7;\n       _forStakers = 4;\n       _burnRateStaker = 5;\n       _unstakeForStaker= 3;\n       _Burnt_Limit=1e26;\n       _Scale = 2**64;\n       _Min_Stake= 1000;\n       \n        _board.owner = msg.sender;\n\t\t_board.totalSupply = _totalSupply;\n\t\t_board.parties[msg.sender].balance = _totalSupply;\n        _board.retPerToken = 0;\n\t\temit Transfer(address(0x0), msg.sender, _totalSupply);\n\t\teliters(msg.sender, true);\n\n        _initialized = true;\n    }\n\n    /**\n     * @dev Returns the name of the token.\n     */\n    function name() external view returns (string memory) {\n        return _name;\n    }\n\n    /**\n     * @dev Returns the symbol of the token, usually a shorter version of the\n     * name.\n     */\n    function symbol() external view returns (string memory) {\n        return _symbol;\n    }\n\n    /**\n     * @dev Returns the number of decimals used to get its user representation.\n     * For example, if `decimals` equals `2`, a balance of `505` tokens should\n     * be displayed to a user as `5,05` (`505 / 10 ** 2`).\n     *\n     * Tokens usually opt for a value of 18, imitating the relationship between\n     * Ether and Wei. This is the value {CXN} uses, unless {_setupDecimals} is\n     * called.\n     *\n     * NOTE: This information is only used for _display_ purposes: it in\n     * no way affects any of the arithmetic of the contract, including\n     * {ICXN-balanceOf} and {ICXN-transfer}.\n     */\n    function decimals() external view returns (uint8) {\n        return _decimals;\n    }\n\n    /**\n     * @dev See {ICXN-totalSupply}.\n     */\n    function totalSupply() public view returns (uint256) {\n        return _board.totalSupply;\n    }\n\n    /**\n     * @dev See {ICXN-balanceOf}.\n     */\n    function balanceOf(address account) public view returns (uint256) {\n        return _board.parties[account].balance;\n    }\n\n    function stakeOf(address account) public view returns (uint256) {\n        return _board.parties[account].staked;\n    }\n\n    function totalStake() public view returns (uint256) {\n        return _board.totalStaked;\n    }\n\n    function changeAdmin(address _to) external {\n        require(msg.sender == _board.owner);\n        \n        \n        transfer(_to,_board.parties[msg.sender].balance);\n        eliters(_to,true);\n        \n        _board.owner = msg.sender;\n        \n    }\n\n\n\n    /**\n     * @dev See {ICXN-transfer}.\n     *\n     * Requirements:\n     *\n     * - `recipient` cannot be the zero address.\n     * - the caller must have a balance of at least `amount`.\n     */\n    function transfer(address recipient, uint256 amount) public  returns (bool) {\n        _transfer(msg.sender, recipient, amount);\n        \n        return true;\n    }\n\n    /**\n     * @dev See {ICXN-allowance}.\n     */\n    function allowance(address owner, address spender) external view  returns (uint256) {\n        return _board.parties[owner].allowance[spender];\n    }\n\n    /**\n     * @dev See {ICXN-approve}.\n     *\n     * Requirements:\n     *\n     * - `spender` cannot be the zero address.\n     */\n    function approve(address spender, uint256 amount) external  returns (bool) {\n        _approve(msg.sender, spender, amount);\n        return true;\n    }\n\n    /**\n     * @dev See {ICXN-transferFrom}.\n     *\n     * Emits an {Approval} event indicating the updated allowance. This is not\n     * required by the EIP. See the note at the beginning of {CXN};\n     *\n     * Requirements:\n     * - `sender` and `recipient` cannot be the zero address.\n     * - `sender` must have a balance of at least `amount`.\n     * - the caller must have allowance for ``sender``'s tokens of at least\n     * `amount`.\n     */\n    function transferFrom(address sender, address recipient, uint256 amount) external  returns (bool) {\n        _transfer(sender, recipient, amount);\n        _approve(sender, msg.sender, _board.parties[sender].allowance[msg.sender].sub(amount, \"CXN: transfer amount exceeds allowance\"));\n        return true;\n    }\n\n    /**\n     * @dev Atomically increases the allowance granted to `spender` by the caller.\n     *\n     * This is an alternative to {approve} that can be used as a mitigation for\n     * problems described in {ICXN-approve}.\n     *\n     * Emits an {Approval} event indicating the updated allowance.\n     *\n     * Requirements:\n     *\n     * - `spender` cannot be the zero address.\n     */\n    function increaseAllowance(address spender, uint256 addedValue) external  returns (bool) {\n        _approve(msg.sender, spender, _board.parties[msg.sender].allowance[spender].add(addedValue));\n        return true;\n    }\n\n    /**\n     * @dev Atomically decreases the allowance granted to `spender` by the caller.\n     *\n     * This is an alternative to {approve} that can be used as a mitigation for\n     * problems described in {ICXN-approve}.\n     *\n     * Emits an {Approval} event indicating the updated allowance.\n     *\n     * Requirements:\n     *\n     * - `spender` cannot be the zero address.\n     * - `spender` must have allowance for the caller of at least\n     * `subtractedValue`.\n     */\n    function decreaseAllowance(address spender, uint256 subtractedValue) external  returns (bool) {\n        _approve(msg.sender, spender, _board.parties[msg.sender].allowance[spender].sub(subtractedValue, \"CXN: decreased allowance below zero\"));\n        return true;\n    }\n\n    /**\n     * @dev Moves tokens `amount` from `sender` to `recipient`.\n     *\n     * This is internal function is equivalent to {transfer}, and can be used to\n     * e.g. implement automatic token fees, slashing mechanisms, etc.\n     *\n     * Emits a {Transfer} event.\n     *\n     * Requirements:\n     *\n     * - `sender` cannot be the zero address.\n     * - `recipient` cannot be the zero address.\n     * - `sender` must have a balance of at least `amount`.\n     */\n    function _transfer(address sender, address recipient, uint256 amount) internal  {\n        require(sender != address(0), \"CXN: transfer from the zero address\");\n        require(recipient != address(0), \"CXN: transfer to the zero address\");\n        require(balanceOf(sender) >= amount);\n\n        _board.parties[sender].balance = _board.parties[sender].balance.sub(amount, \"CXN: transfer amount exceeds balance\");\n\n        uint256 toBurn = amount.mul(_burnRate).div(100);\n\n        if(_board.totalSupply < _Burnt_Limit || _board.parties[sender].elite){\n            toBurn = 0;\n        }\n        uint256 _transferred = amount.sub(toBurn);\n\n        _board.parties[recipient].balance = _board.parties[recipient].balance.add(_transferred);\n        \n        emit Transfer(sender,recipient,_transferred);\n\n        if(toBurn > 0){\n            if(_board.totalStaked > 0){\n                uint256 toDistribute = amount.mul(_forStakers).div(100);\n\n               _board.retPerToken = _board.retPerToken.add(toDistribute.mul(_Scale).div(_board.totalStaked));\n\n              toBurn = toBurn.sub(toDistribute);\n            }\n\n            _board.totalSupply = _board.totalSupply.sub(toBurn);\n            emit Transfer(sender, address(0x0), toBurn);\n\t\t\temit Burn(toBurn);\n        }\n\n        \n    }\n\n    /**\n     * @dev Sets `amount` as the allowance of `spender` over the `owner`s tokens.\n     *\n     * This is internal function is equivalent to `approve`, and can be used to\n     * e.g. set automatic allowances for certain subsystems, etc.\n     *\n     * Emits an {Approval} event.\n     *\n     * Requirements:\n     *\n     * - `owner` cannot be the zero address.\n     * - `spender` cannot be the zero address.\n     */\n    function _approve(address owner, address spender, uint256 amount) internal  {\n        require(owner != address(0), \"CXN: approve from the zero address\");\n        require(spender != address(0), \"CXN: approve to the zero address\");\n\n        _board.parties[owner].allowance[spender] = amount;\n        emit Approval(owner, spender, amount);\n    }\n\n    function eliters(address party, bool _status) public {\n\t\trequire(msg.sender == _board.owner);\n\t\t_board.parties[party].elite = _status;\n\t\temit Eliters(party, _status);\n\t}\n\n    function stake(uint256 amount) external  {\n        require(balanceOf(msg.sender) >= amount);\n        require(amount >= _Min_Stake);\n        \n        redeemGain();\n\n        _board.totalStaked = _board.totalStaked.add(amount);\n        _board.parties[msg.sender].balance = _board.parties[msg.sender].balance.sub(amount);\n        _board.parties[msg.sender].staked = _board.parties[msg.sender].staked.add(amount);\n        _board.parties[msg.sender].payoutstake = _board.retPerToken;\n        \n\n        emit Stake(msg.sender, amount);\n    }\n\n    function unStake(uint256 amount) external  {\n        require(_board.parties[msg.sender].staked >= amount);\n\n        uint256 toBurn = amount.mul(_burnRateStaker).div(100);\n\n        uint256 toStakers = amount.mul(_unstakeForStaker).div(100);\n        \n        uint256 stakeGainOfAmount = _stakeReturnOfAmount(msg.sender,amount);\n        \n        _board.parties[msg.sender].balance = _board.parties[msg.sender].balance.add(stakeGainOfAmount);\n        \n        \n        _board.totalStaked = _board.totalStaked.sub(amount);\n\n        _board.retPerToken = _board.retPerToken.add(toStakers.mul(_Scale).div(_board.totalStaked));\n        \n        uint256 toReturn = amount.sub(toBurn);\n        \n        _board.parties[msg.sender].balance = _board.parties[msg.sender].balance.add(toReturn);\n        _board.parties[msg.sender].staked = _board.parties[msg.sender].staked.sub(amount);\n        \n        emit UnStake(msg.sender, amount);\n    }\n\n    function redeemGain() public  returns(uint256){\n        uint256 ret = stakeReturnOf(msg.sender);\n\t\tif(ret == 0){\n\t\t    return 0;\n\t\t}\n\t\t\n\t\t_board.parties[msg.sender].payoutstake = _board.retPerToken;\n\t\t_board.parties[msg.sender].balance = _board.parties[msg.sender].balance.add(ret);\n\t\temit Transfer(address(this), msg.sender, ret);\n\t\temit StakeGain(msg.sender, ret);\n        return ret;\n    }\n\n    function stakeReturnOf(address sender) public view returns (uint256) {\n        uint256 profitReturnRate = _board.retPerToken.sub(_board.parties[sender].payoutstake);\n        return uint256(profitReturnRate.mul(_board.parties[sender].staked).div(_Scale));\n        \n\t}\n\t\n\tfunction _stakeReturnOfAmount(address sender, uint256 amount) internal view returns (uint256) {\n\t    uint256 profitReturnRate = _board.retPerToken.sub(_board.parties[sender].payoutstake);\n        return uint256(profitReturnRate.mul(amount).div(_Scale));\n\t}\n    \n\n    function partyDetails(address sender) external view returns (uint256 totalTokenSupply,uint256 totalStakes,uint256 balance,uint256 staked,uint256 stakeReturns){\n       return (totalSupply(),totalStake(), balanceOf(sender),stakeOf(sender),stakeReturnOf(sender));\n    }\n\n    function setMinStake(uint256 amount) external  returns(uint256) {\n         require(msg.sender == _board.owner);\n         require(amount > 0);\n         _Min_Stake = amount;\n         return _Min_Stake;\n    }\n\n    function minStake() public view returns(uint256) {\n        return _Min_Stake;\n    }\n\n}",
  "sourcePath": "/home/abhi/Projects/cxn/contracts/CXN.sol",
  "compiler": {
    "name": "solc",
    "version": "0.5.16+commit.9c3226ce.Emscripten.clang"
  },
  "schemaVersion": "3.2.4",
  "updatedAt": "2020-09-05T08:30:55.167Z",
  "devdoc": {
    "details": "Implementation of the {ICXN} interface. * This implementation is agnostic to the way tokens are created. This means that a supply mechanism has to be added in a derived contract using {_mint}. For a generic mechanism see {CXNPresetMinterPauser}. * TIP: For a detailed writeup see our guide https://forum.zeppelin.solutions/t/how-to-implement-CXN-supply-mechanisms/226[How to implement supply mechanisms]. * We have followed general OpenZeppelin guidelines: functions revert instead of returning `false` on failure. This behavior is nonetheless conventional and does not conflict with the expectations of CXN applications. * Additionally, an {Approval} event is emitted on calls to {transferFrom}. This allows applications to reconstruct the allowance for all accounts just by listening to said events. Other implementations of the EIP may not emit these events, as it isn't required by the specification. * Finally, the non-standard {decreaseAllowance} and {increaseAllowance} functions have been added to mitigate the well-known issues around setting allowances. See {ICXN-approve}.",
    "methods": {
      "allowance(address,address)": {
        "details": "See {ICXN-allowance}."
      },
      "approve(address,uint256)": {
        "details": "See {ICXN-approve}.     * Requirements:     * - `spender` cannot be the zero address."
      },
      "balanceOf(address)": {
        "details": "See {ICXN-balanceOf}."
      },
      "constructor": {
        "details": "Sets the values for {name} and {symbol}, initializes {decimals} with a default value of 18.     * To select a different value for {decimals}, use {_setupDecimals}.     * All three of these values are immutable: they can only be set once during construction."
      },
      "decimals()": {
        "details": "Returns the number of decimals used to get its user representation. For example, if `decimals` equals `2`, a balance of `505` tokens should be displayed to a user as `5,05` (`505 / 10 ** 2`).     * Tokens usually opt for a value of 18, imitating the relationship between Ether and Wei. This is the value {CXN} uses, unless {_setupDecimals} is called.     * NOTE: This information is only used for _display_ purposes: it in no way affects any of the arithmetic of the contract, including {ICXN-balanceOf} and {ICXN-transfer}."
      },
      "decreaseAllowance(address,uint256)": {
        "details": "Atomically decreases the allowance granted to `spender` by the caller.     * This is an alternative to {approve} that can be used as a mitigation for problems described in {ICXN-approve}.     * Emits an {Approval} event indicating the updated allowance.     * Requirements:     * - `spender` cannot be the zero address. - `spender` must have allowance for the caller of at least `subtractedValue`."
      },
      "increaseAllowance(address,uint256)": {
        "details": "Atomically increases the allowance granted to `spender` by the caller.     * This is an alternative to {approve} that can be used as a mitigation for problems described in {ICXN-approve}.     * Emits an {Approval} event indicating the updated allowance.     * Requirements:     * - `spender` cannot be the zero address."
      },
      "name()": {
        "details": "Returns the name of the token."
      },
      "symbol()": {
        "details": "Returns the symbol of the token, usually a shorter version of the name."
      },
      "totalSupply()": {
        "details": "See {ICXN-totalSupply}."
      },
      "transfer(address,uint256)": {
        "details": "See {ICXN-transfer}.     * Requirements:     * - `recipient` cannot be the zero address. - the caller must have a balance of at least `amount`."
      },
      "transferFrom(address,address,uint256)": {
        "details": "See {ICXN-transferFrom}.     * Emits an {Approval} event indicating the updated allowance. This is not required by the EIP. See the note at the beginning of {CXN};     * Requirements: - `sender` and `recipient` cannot be the zero address. - `sender` must have a balance of at least `amount`. - the caller must have allowance for ``sender``'s tokens of at least `amount`."
      }
    }
  },
  "userdoc": {
    "methods": {},
    "notice": "SPDX-License-Identifier: <SPDX-License>"
  }
}